:040000003FEF00F0DE
:100008005182FACF2AF0FBCF2BF0E9CF2CF0EACFC0
:100018002DF0E1CF2EF0E2CF2FF0D9CF30F0DACFAC
:1000280031F0F3CF32F0F4CF33F0F6CF34F0F7CF2E
:1000380035F0F8CF36F0F5CF37F037C0F5FF36C0DA
:10004800F8FF35C0F7FF34C0F6FF33C0F4FF32C005
:10005800F3FF31C0DAFF30C0D9FF2FC0E2FF2EC056
:10006800E1FF2DC0EAFF2CC0E9FF2BC0FBFF2AC02F
:0A007800FAFF51921100E9EF13F0B6
:100F000000CE0F6E0FA20F090F090265000201004B
:100F1000C0320904000000010100000924010001A1
:100F20000900010109040100020103000007240176
:100F30000001410006240201010006240202020011
:100F40000924030103010201000924030204010131
:100F50000100090501024000000000052501010112
:100F6000090581024000000000052501010334034A
:100F70004D006900630072006F0063006800690043
:100F80007000200054006500630068006E006F0070
:100F90006C006F0067007900200049006E0063005C
:100FA0002E001A034200450052005200590048002A
:100FB00049004C004C0020002000200012010002DB
:100FC00000000008D80459000200010201010403D6
:030FD00009040011
:100FD4000D012205D8A410D00D0120511F0B0009CA
:100FE400D8A40AD0048E030E0D012119D8A402D06E
:100FF400010E01D0000E146E0D012251D8A412006E
:101004000D0120511F0B020AD8A412000D01245116
:101014000F0B0009D8B412000D0124510F0B00016D
:10102400FE6F020E0001FE611200200E1918D8A4F2
:101034001200048E0D0124BF1FD00D0124510F0B8B
:101044000001FE6F0001FE51020DA90EF324D96EBA
:10105400000EF420DA6EDECF03F1DDCF04F10D01D2
:1010640024510F0B0001FE6F0001FE51010DB30E60
:10107400F324D96E000E1ED00D0124510F0B000174
:10108400FE6F0001FE51020D070EF324D96E000E0F
:10109400F420DA6EDECF03F1DDCF04F10D0124512B
:1010A4000F0B0001FE6F0001FE51010DB10EF32480
:1010B400D96E000EF420DA6EDF500101026F0101D7
:1010C40002B109D0FB0E010103150101036FFF0EEC
:1010D4000101041507D0040E010103110101036F7E
:1010E400010104510101046F0D0124BF0DD00D0154
:1010F40024510F0B0001FE6F0001FE51020DA90ED9
:10110400F324D96E000E0CD00D0124510F0B0001F5
:10111400FE6F0001FE51020D070EF324D96E000E7E
:10112400F420DA6E03C1DEFF04C1DDFF030E0D01FE
:101134002119D8A434D003C1D9FF04C1DAFF0101B5
:10114400DFAE20D00D0124BF0DD00D0124510F0BB3
:101154000001FE6F0001FE51010DB30EF324D96EA0
:10116400000E0CD00D0124510F0B0001FE6F000185
:10117400FE51010DB10EF324D96E000EF420DA6E87
:101184000001DF8203C1D9FF04C1DAFF000EDB8452
:1011940003C1D9FF04C1DAFF000EDB8E1200040E76
:1011A400010103190101036F010104510101046FDD
:1011B40003C1D9FF04C1DAFF0101DFAE1DD003C1B1
:1011C400D9FF04C1DAFF7F0EDF1603C1D9FF04C1C2
:1011D400DAFF000EDB8C000E0001F96F050EF86FCC
:1011E40003C1FAF004C1FBF0000E0001FD6F020E12
:1011F400FC6F8AEC11F006D003C1D9FF04C1DAFFF9
:10120400000EDB8C040E010103190101036F0101BF
:1012140004510101046F010102B307D003C1D9FFD6
:1012240004C1DAFF0101DFAE37D00D0124BF0DD0B8
:101234000D0124510F0B0001FE6F0001FE51010D41
:10124400B30EF324D96E000E0CD00D0124510F0BF4
:101254000001FE6F0001FE51010DB10EF324D96EA1
:10126400000EF420DA6E0001DF9203C1D9FF04C13D
:10127400DAFF3B0EDF16000E0001F96F050EF86F62
:1012840003C1FAF004C1FBF0000E0001FD6F020E71
:10129400FC6F8AEC11F006D003C1D9FF04C1DAFF58
:1012A4003B0EDF160D0124510F0B0001FE6F0001F0
:1012B400FE51010D260EF3240101006F0F0EF420E0
:1012C4000101016F00C1D9FF01C1DAFFFE0EDF1673
:1012D40012001950D8A414D0000E656E000E0F0130
:1012E400366F160E0F01396F9F0E0F01376F7B0E8D
:1012F4000F01366F01D0658665A6FDD7010E196E04
:101304001904D8B465BA0BD0000E626E000E0F013A
:10131400366F0F0136810F013689020E196E62A4F1
:1013240006D00F0136A503D0629431EC13F065A208
:1013340002D0A198120062A008D00F0136A105D0F6
:1013440036EC0AF0040E196E629062A804D00F0104
:1013540036B98BEC13F062AC1FD00F0136AD12D04E
:10136400000E0001F96F730EF86F000E0001FA6FA2
:10137400000E0001FB6F000E0001FD6F010EFC6FFB
:101384008AEC11F0629CD6EC13F01C50D8A41C0615
:101394001C50D8B424EC0FF062AA04D00F0136BB61
:1013A400CCEC12F062A216D00F0136A313D07F0E3C
:1013B4000001F96FF869000E0001FA6F000E0001D8
:1013C400FB6F000E0001FD6F010EFC6F8AEC11F043
:1013D400000E636E040E196002D0A19812000F0172
:1013E40036A740D0000E0101056F030E010105650B
:1013F40001D038D062A636D064CF29F02930E83243
:10140400E8320F0B1F6E629629B407D01F50010DEE
:10141400B30EF324D96E000E06D01F50010DB10E89
:10142400F324D96E000EF420DA6E0001DF701F5031
:10143400D8A403D0DAEC0FF012D0000E0001F96F3B
:10144400720EF86F290E0001FA6F000E0001FB6F97
:10145400000E0001FD6F000EFC6F8AEC11F001011B
:10146400052BC3D7A1981200A098000E636E000E3E
:10147400626E000E0F01266F270E386E0F0E396E46
:10148400000E3B6E000E3A6E000E3D6E010E3C6E79
:10149400C0EC13F0160E0F01396F9F0E0F01376F5A
:1014A4007B0E0F01366F000E406E070E406401D0B4
:1014B4000ED04050040D000EF324D96E0D0EF4200E
:1014C400DA6EDE6ADE6ADE6ADD6A402AEED7658C91
:1014D400000E0F01386F6598659C6296000E046ECD
:1014E400000E00019B6F000E00019D6F000E9C6FAB
:1014F40062B6F3D7010E1A6E010E1B6E000E166E45
:10150400000E176E000E156E000E406E010E406444
:1015140001D02ED04050020D070EF324D96E000ED8
:10152400F420DA6E000EDE6E000EDD6E4050020D09
:10153400A90EF324D96E000EF420DA6E000EDE6ECE
:10154400000EDD6E4050010DB10EF324D96E000E75
:10155400F420DA6E000EDF6E4050010DB30EF3245A
:10156400D96E000EF420DA6E000EDF6E402ACED75C
:10157400080E076E0D0E086E160E0F01266F0D0E67
:101584000D01036F200E026F080E0D01016F040E92
:101594000D01006F0D01008F000E276E000E00017B
:1015A400A16F000EA26F000EA36F000EA46F000EB9
:1015B4000001B76F000E196E1200800E0D01201984
:1015C400D8A41200C00E046E85D0BC0E016E0F0E9E
:1015D400026E000E066E120E056E12000D012251EF
:1015E400D8A443D00D012251020D070EF324F66E48
:1015F4000F0EF420F76EF86A000EF8220900F5CFFA
:1016040001F00A00F5CF02F0020E0124386E000E3C
:101614000220396E38C0F6FF39C0F7FF000EF86EAD
:101624000E0EF76403D00800F55005D0F6CFE9FF9D
:10163400F7CFEAFFEF50056E030E0124386E000E5B
:101644000220396E38C0F6FF39C0F7FF000EF86E7D
:101654000E0EF76403D00800F55005D0F6CFE9FF6D
:10166400F7CFEAFFEF50066E1200000E046E120070
:10167400030E0D01226128D00D012251020D010E2D
:10168400F324F66E0F0EF420F76EF86A000EF822BB
:101694000900F5CF01F00A00F5CF02F001C0F6FF12
:1016A40002C0F7FF000EF86E0E0EF76403D00800B8
:1016B400F55005D0F6CFE9FFF7CFEAFFEF50386ECB
:1016C4003850056E066A1200000E046E1200000EF9
:1016D400046E12000D012351010AD8B476D7030A0F
:1016E400D8B47CD7010AD8B4C3D7F1D720EE01F01F
:1016F4000F50D9261050DA22DF50396E39500001CC
:101704009C5D000E9D59D8A09CC039F03950000151
:101714009C5F000E9D5B000E386E12D03850010D98
:10172400280EF324D96E0D0EF420DA6E98C0E1FF72
:1017340099C0E2FFDFCFE7FF0001984B992B382ACD
:101744003950385CD8A0EAD700019C5100019D11A2
:10175400D8B432D020EE01F01150D9261250DA223A
:10176400080EDF6E20EE02F01150D9261250DA2254
:10177400280EDE6E0D0EDD6E0FC0D9FF10C0DAFF2D
:10178400DFBC0DD011C0D9FF12C0DAFF480EDF6EE6
:1017940011C0D9FF12C0DAFF000EDB8E120011C097
:1017A400D9FF12C0DAFF080EDF6E11C0D9FF12C0D4
:1017B400DAFF000EDB8E120020EE01F01150D92664
:1017C4001250DA22080EDF6E20EE02F01150D926F4
:1017D4001250DA22200EDE6E0D0EDD6E11C0D9FF1E
:1017E40012C0DAFF040EDF6E11C0D9FF12C0DAFF97
:1017F400000EDB8E00019B9F1850D8A4120024EC2D
:101804000FF01200406E3850D8B407D04050020D8B
:10181400070EF324D96E000E06D04050020DA90E17
:10182400F324D96E000EF420DA6EDECF41F0DDCF62
:1018340042F041504210D8A405D0000E386E000E7C
:10184400396E120020EE02F04150D9264250DA22BD
:1018540039C0DEFF3AC0DDFF20EE01F04150D92649
:101864004250DA223BC0DFFF41C0D9FF42C0DAFF59
:10187400400EDF1641C0D9FF42C0DAFF000EDB86FE
:1018840041C0D9FF42C0DAFF000EDB8E3850D8B415
:1018940018D04050020D070EF324D96E000EF42028
:1018A400DA6EDECF3CF0DDCF3DF0040E3C183E6E28
:1018B4003D503F6E4050020D070EF324D96E000ECA
:1018C40017D04050020DA90EF324D96E000EF42057
:1018D400DA6EDECF3CF0DDCF3DF0040E3C183E6EF8
:1018E4003D503F6E4050020DA90EF324D96E000EF8
:1018F400F420DA6E3EC0DEFF3FC0DDFF41C038F0A9
:1019040042C039F01200659804BE39D000019BAF83
:101914000BD0020E1D6E1750D8B476EC10F0000EEA
:101924001B6E000E1A6E120020EE01F01150D92623
:101934001250DA22080EDF6E20EE02F01150D92682
:101944001250DA22200EDE6E0D0EDD6E11C0D9FFAC
:1019540012C0DAFF0C0EDF6E11C0D9FF12C0DAFF1D
:10196400000EDB8E07C0D9FF08C0DAFF040EDF6E5D
:1019740007C0D9FF08C0DAFF000EDB8E12000D018C
:1019840020AF10D0010E1D6E1650D8B476EC10F0B6
:10199400000E1B6E000E1A6E1850D8A4120024EC10
:1019A4000FF01200020E1D6E20EE01F01150D92628
:1019B4001250DA22080EDF6E20EE02F01150D92602
:1019C4001250DA22200EDE6E0D0EDD6E11C0D9FF2C
:1019D40012C0DAFF040EDF6E11C0D9FF12C0DAFFA5
:1019E400000EDB8E000E1B6E000E1A6E1850D8A46B
:1019F400120024EC0FF01200048E270E386E0F0E26
:101A0400396E000E3B6E000E3A6E000E3D6E010EF6
:101A14003C6EC0EC13F0000E386E0D0E396E000EE5
:101A24003B6E000E3A6E000E3D6E200E3C6EC0EC16
:101A340013F0658C000E0001FE6F010E0001FE65BF
:101A440001D019D00001FE51010DB10EF324D96E5D
:101A5400000EF420DA6E000EDF6E0001FE51010D5F
:101A6400B30EF324D96E000EF420DA6E000EDF6E8E
:101A74000001FE2BE2D7280E386E000E396E000EE0
:101A84003B6E000E3A6E000E3D6E010E3C6EC0ECD5
:101A940013F0659C080E076E0D0E086E000E0F6E97
:101AA4000D0E106E0FC011F010C012F022CD27F0F1
:101AB4002750D8A403D0100E196E1200000E000196
:101AC400F96F010EF86F270E0001FA6F000E000186
:101AD400FB6F000E0001FD6F010EFC6F8AEC11F02C
:101AE400200E196E1200000E206E070E206401D025
:101AF40012002050070D040EF326000EF422600E8F
:101B0400F324D96E000EF420DA6E2050070D030E74
:101B1400F326000EF422600EF324E16E000EF4208E
:101B2400E26EDE50E618D8B44ED02050070D030EF6
:101B3400F326000EF422600EF324D96E000EF42076
:101B4400DA6EDF50D8B420D02050070D020EF326F1
:101B5400000EF422600EF324D96E000EF420DA6E27
:101B6400DF50436E000E446E2050070D010EF32625
:101B7400000EF422600EF324D96E000EF420DA6E07
:101B8400DF50C2EC11F01FD02050070D020EF326D7
:101B9400000EF422600EF324D96E000EF420DA6EE7
:101BA400DF50436E000E446E2050070D010EF326E5
:101BB400000EF422600EF324D96E000EF420DA6EC7
:101BC400DF50F3EC11F0202A90D70D012039E832D0
:101BD400030B0009D8A4120047D0048E080E196E16
:101BE4001200DFEC0AF01200FEEC0CF01200270EDB
:101BF400016E000E026E0480010E056E048E12004A
:101C040085EC0FF01200EAEC07F012000D012451EC
:101C1400010D280EF324016E000EF420026E0480E0
:101C2400010E056E048E1200048E0D012451010D67
:101C3400280EF324D96E000EF420DA6E22CDDFFFD5
:101C44001200000E0001F96F020EF86F000E000181
:101C5400FA6F000E0001FB6F000E0001FD6F000E15
:101C6400FC6F8AEC11F012000D012151000AD8B466
:101C7400C7D7010AD8B4C7D7020AD8B4C4D7060A4A
:101C8400D8B4ABD7030AD8B4ACD7010AD8B4D9D7DF
:101C94000F0AD8B4ACD7010AD8B4A6D7030AD8B46B
:101CA400B5D7010AD8B4C0D7070A1200080E386E97
:101CB400065010E1080E055CD8B00CD005C038F011
:101CC4002250D8A402D0010E04D02204D8A402D0F9
:101CD400020E226E3850055E000E065A20EE01F008
:101CE4000750D9260850DA2238C0DFFF280E000139
:101CF400B56F0D0E0001B66F04A01DD03CD001C01D
:101D0400F6FF02C0F7FF000EF86EB5C0D9FFB6C0EB
:101D1400DAFF0E0EF76403D00800F55005D0F6CFB5
:101D2400E9FFF7CFEAFFEF50DF6E014A022A000114
:101D3400B54BB62B38063850D8B41200E0D701C0E2
:101D4400F6FF02C0F7FF000EF86EB5C0D9FFB6C0AB
:101D5400DAFF0E0EF76403D00800F55005D0F6CF75
:101D6400E9FFF7CFEAFFEF50DF6E014A022A0001D4
:101D7400B54BB62B38063850D8B41200E0D707C09C
:101D8400D9FF08C0DAFF000EDFBC010E396E040E65
:101D94000718076E0850086E080E1918D8A40DD03D
:101DA4000D0122517F0B0F01386F0F013851D8B448
:101DB40002D0100E01D0040E196E1D04D8A43AD01E
:101DC40020EE02F00750D9260850DA22280EDE6EE3
:101DD4000D0EDD6E58EC0EF0020E2218D8A40DD0B4
:101DE40007C0D9FF08C0DAFF040EDF6E07C0D9FFB1
:101DF40008C0DAFF000EDB8E12003950D8A40DD0D3
:101E040007C0D9FF08C0DAFF480EDF6E07C0D9FF4C
:101E140008C0DAFF000EDB8E120007C0D9FF08C02D
:101E2400DAFF080EDF6E07C0D9FF08C0DAFF000E24
:101E3400DB8E120000019BAF02D000019B9F000EBD
:101E44001D6E12001A50D8A41200010E1A6E1B50F7
:101E5400D8A41200010E1B6E020E1D18D8A415D0B2
:101E640020EE01F00750D9260850DA22000EDF6E6A
:101E740007C0D9FF08C0DAFF480EDF6E07C0D9FFDC
:101E840008C0DAFF000EDB8E12001D04D8A4120075
:101E9400000E136E20EE01F00F50D9261050DA22F6
:101EA400080EDF6E20EE02F00F50D9261050DA2211
:101EB400200EDE6E0D0EDD6E0FC0D9FF10C0DAFFEE
:101EC400040EDF6E0FC0D9FF10C0DAFF000EDB8EE8
:101ED400010E136E20EE01F01150D9261250DA22B1
:101EE400080EDF6E20EE02F01150D9261250DA22CD
:101EF400200EDE6E0D0EDD6E11C0D9FF12C0DAFFAA
:101F0400800EDF6E1200000E0D01286F000E0D0111
:101F1400296F38D0048E1404D8A440D00D0128832E
:101F24003DD0048E3BD0048E0D0124BF0BD00D0197
:101F340024510F0B386E3850020DA90EF324D96EBC
:101F4400000E0AD00D0124510F0B386E3850020DCB
:101F5400070EF324D96E000EF420DA6EDECF39F0CA
:101F6400DDCF3AF039C0D9FF3AC0DAFFDFAE16D080
:101F740039C0D9FF3AC0DAFFDFA410D0010E0D0139
:101F8400286F0CD00D0120511F0B000AD8B4C2D702
:101F9400010AD8B4C6D7030AD8B4C5D704AE120010
:101FA400280E016E0D0E026E0480020E056E1200E4
:101FB4002D0E1C6E29C0FFF0FD0E0001FF17D8A4E2
:101FC4003ED029C0FFF00001D890FF333F0E00013E
:101FD400FF170001FF51040D000EF3240F6E0D0EC8
:101FE400F420106E0FC011F010C012F0040E11187E
:101FF400116E1250126E0FC0D9FF10C0DAFFDF301D
:10200400E8320F0B0D0AD8A417D0200E386E0D0E2F
:10201400396E20EE02F00F50D9261050DA22DECFAE
:102024003AF0DDCF3BF0000E3D6E080E3C6E11EC35
:1020340013F029EC10F0120024EC12F012002950D5
:10204400FD0B040AD8A41200C1EC0EF01200000E1D
:10205400226E000E186E000E166E000E176E000E25
:10206400136E000E1D6E07C0D9FF08C0DAFF7F0E85
:10207400DF16040E0718076E0850086E07C0D9FF54
:1020840008C0DAFF7F0EDF16040E0718076E08502B
:10209400086E11C0D9FF12C0DAFF7F0EDF16000EE2
:1020A400046E000E066E000E056E000E00019B6F9E
:1020B400000E00019D6F000E9C6FE7EC0DF0000E0A
:1020C4000001F96F030EF86F000E0001FA6F000EA5
:1020D4000001FB6F000E0001FD6F000EFC6F8AEC27
:1020E40011F085EC0CF01200000E166E000E176E47
:1020F400020E1D18D8A41FD020EE01F01150D926CD
:102104001250DA22080EDF6E20EE02F01150D926AA
:102114001250DA22280EDE6E0D0EDD6E11C0D9FFCC
:1021240012C0DAFF480EDF6E11C0D9FF12C0DAFF09
:10213400000EDB8E120005500D01265D06500D01C8
:102144002759D8B004D026CD05F027CD06F058EC99
:102154000EF020EE02F00750D9260850DA22280E9D
:10216400DE6E0D0EDD6E07C0D9FF08C0DAFF480E23
:10217400DF6E07C0D9FF08C0DAFF000EDB8E120045
:102184003D6E000E3E6E0D0E3F6E3850396E3A6A4B
:10219400D89039363A363D503B6E3C6AD8903B363F
:1021A4003C36D8903B363C3639503B263A503C229C
:1021B400D8903B363C36D8903B363C363B503E2696
:1021C4003C503F223EC0D9FF3FC0DAFFDF9E38506B
:1021D400D8A407D03D50020DA90EF324D96E000EE9
:1021E40006D03D50020D070EF324D96E000EF420E4
:1021F400DA6E3EC0DEFF3FC0DDFF3EC0D9FF3FC008
:10220400DAFFDF9C20EE04F03E50D9263F50DA225C
:10221400DF8C120065A236D0010E0BEC14F0120014
:102224000B040C10D8A404D0010EFAEC13F02FD038
:102234004B0E0B180C10D8A404D0010E0BEC14F0A8
:1022440026D00C5004E1970E0B5CD8A020D0000ED1
:102254000C6E000E0B6E1BD00B040C10D8A404D013
:10226400010EFAEC13F013D0320E0B180C10D8A494
:1022740004D0010E0BEC14F00AD0B70E0B5C030E65
:102284000C58E3D71950200AD8B4CAD7E5D70B4A5B
:102294000C2A12008B908B808B92000E29EC14F088
:1022A400216E8B8221C03AF0000E206E070E20644E
:1022B40001D012002050070D030EF326000EF42265
:1022C400600EF324D96E000EF420DA6E2050070D50
:1022D400040EF326000EF422600EF324E16E000EC9
:1022E400F420E26EDFCFE7FF2050070D030EF32644
:1022F400000EF422600EF324D96E000EF420DA6E80
:102304003A50010BDF6ED8903A303A6E202ACED77D
:102314000ED00CEC11F03AEC14F012000CEC11F0AD
:1023240012000CEC11F012006EEC13F01200F8C065
:102334004FF0F9C050F05050000AD8B404D07F0ACE
:10234400D8A412001AD04F50010AD8B4EDD7030A0A
:10235400D8B41200010AD8B41200060AD8B4120084
:10236400770AD8B41200010AD8B4D3D7070AD8B46C
:10237400D8D7010AD8A41200D1D74F50FF0A1200AF
:10238400456E0D500E10D8B406D00DC0D9FF0EC046
:10239400DAFFDFBE1200000E236E000E246E000E64
:1023A400256E000E266E2398239A239C239E235089
:1023B400F00B0909236E900E246E45C025F043C02E
:1023C40026F0010E386E230E396E000E3A6E040E9E
:1023D4003B6E010E04EC0CF038C00DF039C00EF069
:1023E4001200456E0D500E10D8B406D00DC0D9FFA2
:1023F4000EC0DAFFDFBE1200000E236E000E246E44
:10240400000E256E000E266E2398239A239C239E8D
:102414002350F00B0809236E800E246E45C025F06E
:1024240043C026F0010E386E230E396E000E3A6E4C
:10243400040E3B6E010E04EC0CF038C00DF039C0F4
:102444000EF01200020E1D18D8A403D078EC0BF085
:102454001200000E1D6E1350D8A41FD020EE01F000
:102464001150D9261250DA22080EDF6E20EE02F047
:102474001150D9261250DA22200EDE6E0D0EDD6EBA
:1024840011C0D9FF12C0DAFF0C0EDF6E11C0D9FFE4
:1024940012C0DAFF000EDB8E1200000E136E120063
:1024A4001F0E1964120065B212000001AD51000143
:1024B400AE11D8B407D0ADC0D9FFAEC0DAFF000169
:1024C400DFBE15D0ADC048F0AEC049F04A6A4B6AD1
:1024D400000E386EB80E396E000E3A6E400E3B6E2A
:1024E400010E04EC0CF038C0ADF039C0AEF04CEC89
:1024F40011F075EC0DF012003C6E1DD0020E396E19
:10250400580E386E9B8C3806D8A039063828FBE163
:102514003928D8B41200F7D7700ED36E030E3B6E71
:10252400200E3A6E3A06D8A03B063A28FBE13B2837
:10253400D8B41200F7D73C50000AD8B4DFD7010A48
:10254400D8B41200030AD8A41200E6D7000E206EF5
:10255400070E206401D0120020503C0F386E20502A
:10256400A7EC13F020EE48F0060EEBCFDBFFE806F5
:10257400FCE220EE48F02050070D600EF324E16EDB
:10258400000EF420E26E060EDBCFE3FFE806FCE269
:10259400202ADED70F0126A11ED00FC0D9FF10C0FC
:1025A400DAFF800EDE18D8A414D007C0D9FF08C003
:1025B400DAFF840EDE18D8A40CD00FC0D9FF10C0E7
:1025C400DAFF0C0EDF6E0FC0D9FF10C0DAFF000E69
:1025D400DB8E0F012691629A12009B8C1CEC14F086
:1025E40032EC14F0000E7EEC12F036EC0AF0000E21
:1025F4000001B06F000EAF6FAA0E216E6BEC09F0F4
:1026040052EC12F08C90180E29EC14F0000E29EC08
:1026140014F0000E29EC14F0216E8C80EFD73AC030
:1026240040F03BC041F038C03EF039C03FF00ED01E
:1026340040C0D9FF41C0DAFF3EC0E1FF3FC0E2FF26
:10264400DFCFE7FF404A412A3E4A3F2A3C06D8A052
:102654003D063C28EDE13D28D8B41200E9D7000E30
:10266400156E000E0001F96F740EF86F000E000174
:10267400FA6F000E0001FB6F000E0001FD6F000EEB
:10268400FC6F8AEC11F065920F01369501D06294CB
:1026940062B4FDD7000E0001B76F1200436E40A470
:1026A40005D0000E386E4350C2EC10F040A205D0A5
:1026B400010E386E4350C2EC10F04350010D260E4B
:1026C400F324416E0F0EF420426E41C0D9FF42C084
:1026D400DAFF40C0DFFF1200000E0001AD6F000EF4
:1026E4000001AE6F1E0E406E010E50EC13F0000E92
:1026F400386EB80E396E000E3A6E400E3B6E010E07
:1027040004EC0CF038C0ADF039C0AEF0A8EC12F017
:1027140012000F01368562986582010E156E000E57
:102724000001B76F000E0001F96F750EF86F000E0F
:102734000001FA6F000E0001FB6F000E0001FD6F37
:10274400000EFC6F8AEC11F01200406E40C041F0A4
:1027540038C042F07A0E436E000E446E000E456E91
:10276400000E466E000E476E20EE41F000EE38F08B
:10277400060EDBCFEBFFE806FCE2120038C03EF0A9
:1027840039C03FF008D03EC0D9FF3FC0DAFF3AC09D
:10279400DFFF3E4A3F2A3C06D8A03D063C28F3E131
:1027A4003D28D8B41200EFD7010E0001A127000E76
:1027B400A223A323A4231550D8A412000001B72BED
:1027C4000001B751D8A412000001B769120000EE4D
:1027D40060F0980EEE6AE806FDE100EE01F0290EC5
:1027E400EE6AE806FDE1519051920001EFEF12F01C
:1027F400386E04D08D8012008D8212003850000A89
:10280400D8B41200010AD8B4F5D7030AD8A4120028
:10281400F3D7386E04D08D9012008D921200385088
:10282400000AD8B41200010AD8B4F5D7030AD8A410
:102834001200F3D7000E8A6E200E936E030E8B6E79
:10284400000E946E010E8C6E100E956E1200386E92
:1028540038C0C9FFC7A0FED7C9CF39F0395012001C
:10286400C78CC698C650F00B0109C66EC68A120002
:02287400120050
:020000040001F9
:08FFF800A8F73DFF63FA81F94F
:00000001FF
