:040000003FEF00F0DE
:100008005182FACF31F0FBCF32F0E9CF33F0EACFAB
:1000180034F0E1CF35F0E2CF36F0D9CF37F0DACF90
:1000280038F0F3CF39F0F4CF3AF0F6CF3BF0F7CF12
:100038003CF0F8CF3DF0F5CF3EF03EC0F5FF3DC0B7
:10004800F8FF3CC0F7FF3BC0F6FF3AC0F4FF39C0E9
:10005800F3FF38C0DAFF37C0D9FF36C0E2FF35C03A
:10006800E1FF34C0EAFF33C0E9FF32C0FBFF31C013
:0A007800FAFF51921100FFEF13F0A0
:100F000000CE0F6E0FA20F090F090265000201004B
:100F1000C0320904000000010100000924010001A1
:100F20000900010109040100020103000007240176
:100F30000001410006240201010006240202020011
:100F40000924030103010201000924030204010131
:100F50000100090501024000000000052501010112
:100F6000090581024000000000052501010334034A
:100F70004D006900630072006F0063006800690043
:100F80007000200054006500630068006E006F0070
:100F90006C006F0067007900200049006E0063005C
:100FA0002E001A034200450052005200590048002A
:100FB00049004C004C0020002000200012010002DB
:100FC00000000008D80459000200010201010403D6
:030FD00009040011
:100FD4000D012205D8A410D00D0120511F0B0009CA
:100FE400D8A40AD0048E030E0D012119D8A402D06E
:100FF400010E01D0000E1A6E0D012251D8A4120068
:101004000D0120511F0B020AD8A412000D01245116
:101014000F0B0009D8B412000D0124510F0B00016D
:10102400E76F020E0001E7611200200E1F18D8A41A
:101034001200048E0D0124BF1FD00D0124510F0B8B
:101044000001E76F0001E751020D990EF324D96EF8
:10105400000EF420DA6EDECFEBF0DDCFECF00D0104
:1010640024510F0B0001E76F0001E751010D130E2E
:10107400F324D96E000E1ED00D0124510F0B000174
:10108400E76F0001E751020D070EF324D96E000E3D
:10109400F420DA6EDECFEBF0DDCFECF00D0124515D
:1010A4000F0B0001E76F0001E751010D110EF3244E
:1010B400D96E000EF420DA6EDF500001EA6F0001F1
:1010C400EAB109D0FB0E0001EB150001EB6FFF0E36
:1010D4000001EC1507D0040E0001EB110001EB6FC9
:1010E4000001EC510001EC6F0D0124BF0DD00D0186
:1010F40024510F0B0001E76F0001E751020D990E17
:10110400F324D96E000E0CD00D0124510F0B0001F5
:10111400E76F0001E751020D070EF324D96E000EAC
:10112400F420DA6EEBC0DEFFECC0DDFF030E0D0130
:101134002119D8A433D0EBC0D9FFECC0DAFF0001E9
:10114400DFAE1FD00D0124BF0DD00D0124510F0BB4
:101154000001E76F0001E751010D130EF324D96E6E
:10116400000E0CD00D0124510F0B0001E76F00019C
:10117400E751010D110EF324D96E000EF420DA6E3E
:10118400DF82EBC0D9FFECC0DAFF000EDB84EBC0DA
:10119400D9FFECC0DAFF000EDB8E1200040E000152
:1011A400EB190001EB6F0001EC510001EC6FEBC097
:1011B400D9FFECC0DAFF0001DFAE1DD0EBC0D9FFD0
:1011C400ECC0DAFF7F0EDF16EBC0D9FFECC0DAFF0C
:1011D400000EDB8C000E0001E26F050EE16FEBC028
:1011E400E3F0ECC0E4F0000E0001E66F020EE56FE0
:1011F4008DEC11F006D0EBC0D9FFECC0DAFF000E85
:10120400DB8C040E0001EB190001EB6F0001EC51C3
:101214000001EC6F0001EAB307D0EBC0D9FFECC0CA
:10122400DAFF0001DFAE36D00D0124BF0DD00D0171
:1012340024510F0B0001E76F0001E751010D130E5C
:10124400F324D96E000E0CD00D0124510F0B0001B4
:10125400E76F0001E751010D110EF324D96E000E62
:10126400F420DA6EDF92EBC0D9FFECC0DAFF3B0E5C
:10127400DF16000E0001E26F050EE16FEBC0E3F034
:10128400ECC0E4F0000E0001E66F020EE56F8DEC99
:1012940011F006D0EBC0D9FFECC0DAFF3B0EDF162D
:1012A4000D0124510F0B0001E76F0001E751010DFF
:1012B400260EF3240001E86F0F0EF4200001E96FFD
:1012C400E8C0D9FFE9C0DAFFFE0EDF1612001F5096
:1012D400D8A414D0000E656E000E0F01366F160EE2
:1012E4000F01396F9F0E0F01376F7B0E0F01366FA1
:1012F40001D0658665A6FDD7010E1F6E1F04D8B404
:1013040065BA0BD0000E626E000E0F01366F0F012E
:1013140036810F013689020E1F6E62A406D00F01BA
:1013240036A503D0629463EC13F065A202D0A198B1
:10133400120062A008D00F0136A105D033EC0AF0E8
:10134400040E1F6E629062A804D00F0136B99FECA0
:1013540013F062AC1FD00F0136AD12D0000E0001A5
:10136400E26F730EE16F000E0001E36F000E0001E7
:10137400E46F000E0001E66F010EE56F8DEC11F0D5
:10138400629C32EC14F02250D8A422062250D8B425
:1013940027EC0FF062AA04D00F0136BBFEEC12F06A
:1013A40062A216D00F0136A313D07F0E0001E26FA4
:1013B400E169000E0001E36F000E0001E46F000E0E
:1013C4000001E66F010EE56F8DEC11F0000E636E07
:1013D400040E1F6002D0A19812000F0136A73FD05F
:1013E400000E0001EE6F030E0001EE6501D037D050
:1013F40062A635D064CF30F03030E832E8320F0BDB
:10140400266E629630B407D02650010D130EF324D5
:10141400D96E000E06D02650010D110EF324D96E9C
:10142400000EF420DA6EDF702650D8A403D0DDEC71
:101434000FF012D0000E0001E26F720EE16F300E59
:101444000001E36F000E0001E46F000E0001E66F7F
:10145400000EE56F8DEC11F00001EE2BC4D7A198BE
:101464001200A098000E636E000E626E000E0F0153
:10147400266F270E3F6E0F0E406E000E426E000E5A
:10148400416E000E446E010E436ED5EC13F0160E41
:101494000F01396F9F0E0F01376F7B0E0F01366FEF
:1014A400000E476E070E476401D00ED04750040D5E
:1014B400000EF324D96E0D0EF420DA6EDE6ADE6AB5
:1014C400DE6ADD6A472AEED7658C000E0F01386F9D
:1014D4006598659C6296000E046E000E00018B6F89
:1014E400000E00018D6F000E8C6F62B6F3D7010EF3
:1014F400206E010E216E000E1C6E000E1D6E000E7D
:101504001B6E000E476E010E476401D02ED047506B
:10151400020D070EF324D96E000EF420DA6E000ECD
:10152400DE6E000EDD6E4750020D990EF324D96E67
:10153400000EF420DA6E000EDE6E000EDD6E4750F3
:10154400010D110EF324D96E000EF420DA6E000E94
:10155400DF6E4750010D130EF324D96E000EF420F4
:10156400DA6E000EDF6E472ACED7080E076E0D0E18
:10157400086E160E0F01266F0D0E0D01036F200E5F
:10158400026F080E0D01016F040E0D01006F0D01B5
:10159400008F000E2E6E000E0001916F000E926FF0
:1015A400000E936F000E946F000E236E000E1F6EDC
:1015B4001200800E0D012019D8A41200C00E046E72
:1015C40085D0BC0E016E0F0E026E000E066E120E5A
:1015D400056E12000D012251D8A443D00D012251F1
:1015E400020D070EF324F66E0F0EF420F76EF86A60
:1015F400000EF8220900F5CF01F00A00F5CF02F041
:10160400020E01243F6E000E0220406E3FC0F6FF22
:1016140040C0F7FF000EF86E0E0EF76403D008000A
:10162400F55005D0F6CFE9FFF7CFEAFFEF50056E8E
:10163400030E01243F6E000E0220406E3FC0F6FFF1
:1016440040C0F7FF000EF86E0E0EF76403D00800DA
:10165400F55005D0F6CFE9FFF7CFEAFFEF50066E5D
:101664001200000E046E1200030E0D01226128D038
:101674000D012251020D010EF324F66E0F0EF4201B
:10168400F76EF86A000EF8220900F5CF01F00A009F
:10169400F5CF02F001C0F6FF02C0F7FF000EF86EAE
:1016A4000E0EF76403D00800F55005D0F6CFE9FF1D
:1016B400F7CFEAFFEF503F6E3F50056E066A120007
:1016C400000E046E1200000E046E12000D01235170
:1016D400010AD8B476D7030AD8B47CD7010AD8B49F
:1016E400C3D7F1D720EE01F01550D9261650DA22CF
:1016F400DF50406E405000018C5D000E8D59D8A023
:101704008CC040F0405000018C5F000E8D5B000ED9
:101714003F6E12D03F50010D280EF324D96E0D0EEA
:10172400F420DA6E88C0E1FF89C0E2FFDFCFE7FF73
:101734000001884B892B3F2A40503F5CD8A0EAD750
:1017440000018C5100018D11D8B432D020EE01F08B
:101754001750D9261850DA22080EDF6E20EE02F058
:101764001750D9261850DA22280EDE6E0D0EDD6EC3
:1017740015C0D9FF16C0DAFFDFBC0DD017C0D9FFE2
:1017840018C0DAFF480EDF6E17C0D9FF18C0DAFFA1
:10179400000EDB8E120017C0D9FF18C0DAFF080E46
:1017A400DF6E17C0D9FF18C0DAFF000EDB8E1200FF
:1017B40020EE01F01750D9261850DA22080EDF6EF9
:1017C40020EE02F01750D9261850DA22200EDE6ED1
:1017D4000D0EDD6E17C0D9FF18C0DAFF040EDF6EE0
:1017E40017C0D9FF18C0DAFF000EDB8E00018B9FF3
:1017F4001E50D8A4120027EC0FF01200476E3F5081
:10180400D8B407D04750020D070EF324D96E000E4A
:1018140006D04750020D990EF324D96E000EF42021
:10182400DA6EDECF48F0DDCF49F048504910D8A435
:1018340005D0000E3F6E000E406E120020EE02F046
:101844004850D9264950DA2240C0DEFF41C0DDFFAE
:1018540020EE01F04850D9264950DA2242C0DFFF79
:1018640048C0D9FF49C0DAFF400EDF1648C0D9FF8F
:1018740049C0DAFF000EDB8648C0D9FF49C0DAFF51
:10188400000EDB8E3F50D8B418D04750020D070E1F
:10189400F324D96E000EF420DA6EDECF43F0DDCFF0
:1018A40044F0040E4318456E4450466E4750020DF2
:1018B400070EF324D96E000E17D04750020D990E6F
:1018C400F324D96E000EF420DA6EDECF43F0DDCFC0
:1018D40044F0040E4318456E4450466E4750020DC2
:1018E400990EF324D96E000EF420DA6E45C0DEFFA3
:1018F40046C0DDFF48C03FF049C040F01200659883
:1019040004BE39D000018BAF0BD0020E246E1D50E3
:10191400D8B479EC10F0000E216E000E206E120087
:1019240020EE01F01750D9261850DA22080EDF6E87
:1019340020EE02F01750D9261850DA22200EDE6E5F
:101944000D0EDD6E17C0D9FF18C0DAFF0C0EDF6E66
:1019540017C0D9FF18C0DAFF000EDB8E07C0D9FF0D
:1019640008C0DAFF040EDF6E07C0D9FF08C0DAFF33
:10197400000EDB8E12000D0120AF10D0010E246E7C
:101984001C50D8B479EC10F0000E216E000E206EBD
:101994001E50D8A4120027EC0FF01200020E246E81
:1019A40020EE01F01750D9261850DA22080EDF6E07
:1019B40020EE02F01750D9261850DA22200EDE6EDF
:1019C4000D0EDD6E17C0D9FF18C0DAFF040EDF6EEE
:1019D40017C0D9FF18C0DAFF000EDB8E000E216E8F
:1019E400000E206E1E50D8A4120027EC0FF0120037
:1019F400000E276E070E276401D012002750050D34
:101A0400030EF326000EF422600EF324D96E000EAA
:101A1400F420DA6E2750050D020EF326000EF42290
:101A2400600EF324E16E000EF420E26EDE50E61840
:101A3400D8B455D02750050D040EF326000EF42219
:101A4400600EF324D96E000EF420DA6EDF50D8A4B1
:101A540046D02750050D020EF326000EF422600E28
:101A6400F324D96E000EF420DA6EDF50D8B41CD003
:101A74002750050D010EF326000EF422600EF32408
:101A8400D96E000EF420DA6EDF504A6E000E4B6EF3
:101A94002750050D600EF324D96E000EF420DA6E83
:101AA400DF50C5EC11F01BD02750050D010EF326B5
:101AB400000EF422600EF324D96E000EF420DA6EC8
:101AC400DF504A6E000E4B6E2750050D600EF32456
:101AD400D96E000EF420DA6EDF50F6EC11F0272AEE
:101AE40089D7048E270E3F6E0F0E406E000E426E95
:101AF400000E416E000E446E010E436ED5EC13F0E1
:101B0400000E3F6E0D0E406E000E426E000E416ED2
:101B1400000E446E200E436ED5EC13F0658C000E5F
:101B24000001E76F010E0001E76501D019D0000143
:101B3400E751010D110EF324D96E000EF420DA6E74
:101B4400000EDF6E0001E751010D130EF324D96E70
:101B5400000EF420DA6E000EDF6E0001E72BE2D7F0
:101B64002F0E3F6E000E406E000E426E000E416E50
:101B7400000E446E010E436ED5EC13F0659C080E06
:101B8400076E0D0E086E000E156E0D0E166E15C046
:101B940017F016C018F022CD2EF02E50D8A403D082
:101BA400100E1F6E1200000E0001E26F010EE16FB5
:101BB4002E0E0001E36F000E0001E46F000E000121
:101BC400E66F010EE56F8DEC11F0200E1F6E120012
:101BD4000D012039E832030B0009D8A4120047D0C4
:101BE400048E080E1F6E1200DBEC0AF0120073EC78
:101BF4000DF012002E0E016E000E026E0480010E16
:101C0400056E048E120088EC0FF01200EAEC07F067
:101C140012000D012451010D2F0EF324016E000E4C
:101C2400F420026E0480010E056E048E1200048EF0
:101C34000D012451010D2F0EF324D96E000EF42052
:101C4400DA6E22CDDFFF1200000E0001E26F020EF9
:101C5400E16F000E0001E36F000E0001E46F000E5F
:101C64000001E66F000EE56F8DEC11F012000D011E
:101C74002151000AD8B4C7D7010AD8B4C7D7020A79
:101C8400D8B4C4D7060AD8B4ABD7030AD8B4ACD7EF
:101C9400010AD8B4D9D70F0AD8B4ACD7010AD8B43A
:101CA400A6D7030AD8B4B5D7010AD8B4C0D7070A4F
:101CB4001200080E3F6E065010E1080E055CD8B005
:101CC4000CD005C03FF02950D8A402D0010E04D096
:101CD4002904D8A402D0020E296E3F50055E000EDE
:101CE400065A20EE01F00750D9260850DA223FC0E8
:101CF400DFFF280E00019F6F0D0E0001A06F04A0EE
:101D04001DD03CD001C0F6FF02C0F7FF000EF86EF4
:101D14009FC0D9FFA0C0DAFF0E0EF76403D00800FD
:101D2400F55005D0F6CFE9FFF7CFEAFFEF50DF6EAD
:101D3400014A022A00019F4BA02B3F063F50D8B412
:101D44001200E0D701C0F6FF02C0F7FF000EF86EE4
:101D54009FC0D9FFA0C0DAFF0E0EF76403D00800BD
:101D6400F55005D0F6CFE9FFF7CFEAFFEF50DF6E6D
:101D7400014A022A00019F4BA02B3F063F50D8B4D2
:101D84001200E0D707C0D9FF08C0DAFF000EDFBC9D
:101D9400010E406E040E0718076E0850086E080EF8
:101DA4001F18D8A40DD00D0122517F0B0F01386FDD
:101DB4000F013851D8B402D0100E01D0040E1F6E9A
:101DC4002404D8A43AD020EE02F00750D9260850B3
:101DD400DA22280EDE6E0D0EDD6E5BEC0EF0020EC6
:101DE4002918D8A40DD007C0D9FF08C0DAFF040E03
:101DF400DF6E07C0D9FF08C0DAFF000EDB8E1200C9
:101E04004050D8A40DD007C0D9FF08C0DAFF480E4F
:101E1400DF6E07C0D9FF08C0DAFF000EDB8E1200A8
:101E240007C0D9FF08C0DAFF080EDF6E07C0D9FF6C
:101E340008C0DAFF000EDB8E120000018BAF02D067
:101E440000018B9F000E246E12002050D8A41200B3
:101E5400010E206E2150D8A41200010E216E020E34
:101E64002418D8A415D020EE01F00750D926085024
:101E7400DA22000EDF6E07C0D9FF08C0DAFF480E71
:101E8400DF6E07C0D9FF08C0DAFF000EDB8E120038
:101E94002404D8A41200000E196E20EE01F015508F
:101EA400D9261650DA22080EDF6E20EE02F0155005
:101EB400D9261650DA22200EDE6E0D0EDD6E15C008
:101EC400D9FF16C0DAFF040EDF6E15C0D9FF16C0A5
:101ED400DAFF000EDB8E010E196E20EE01F01750B2
:101EE400D9261850DA22080EDF6E20EE02F01750C1
:101EF400D9261850DA22200EDE6E0D0EDD6E17C0C4
:101F0400D9FF18C0DAFF800EDF6E1200000E0D013B
:101F1400286F000E0D01296F38D0048E1A04D8A43E
:101F240040D00D0128833DD0048E3BD0048E0D019A
:101F340024BF0BD00D0124510F0B3F6E3F50020DF7
:101F4400990EF324D96E000E0AD00D0124510F0B03
:101F54003F6E3F50020D070EF324D96E000EF4209D
:101F6400DA6EDECF40F0DDCF41F040C0D9FF41C092
:101F7400DAFFDFAE16D040C0D9FF41C0DAFFDFA4DC
:101F840010D0010E0D01286F0CD00D0120511F0B34
:101F9400000AD8B4C2D7010AD8B4C6D7030AD8B441
:101FA400C5D704AE1200280E016E0D0E026E048019
:101FB400020E056E12002D0E226E30C0EDF0FD0EE5
:101FC4000001ED17D8A43ED030C0EDF00001D89048
:101FD400ED333F0E0001ED170001ED51040D000E2D
:101FE400F324156E0D0EF420166E15C017F016C0EE
:101FF40018F0040E1718176E1850186E15C0D9FF74
:1020040016C0DAFFDF30E8320F0B0D0AD8A417D060
:10201400200E3F6E0D0E406E20EE02F01550D926B4
:102024001650DA22DECF41F0DDCF42F0000E446ECE
:10203400080E436E43EC13F02CEC10F0120058EC35
:1020440012F012003050FD0B040AD8A41200C4ECA4
:102054000EF01200000E296E000E1E6E000E1C6E95
:10206400000E1D6E000E196E000E246E07C0D9FFFF
:1020740008C0DAFF7F0EDF16040E0718076E08503B
:10208400086E07C0D9FF08C0DAFF7F0EDF16040E02
:102094000718076E0850086E17C0D9FF18C0DAFF7A
:1020A4007F0EDF16000E046E000E066E000E056E27
:1020B400000E00018B6F000E00018D6F000E8C6FFF
:1020C400EAEC0DF0000E0001E26F030EE16F000E6A
:1020D4000001E36F000E0001E46F000E0001E66FE3
:1020E400000EE56F8DEC11F081EC0CF01200000E87
:1020F4001C6E000E1D6E020E2418D8A41FD020EEF4
:1021040001F01750D9261850DA22080EDF6E20EE9F
:1021140002F01750D9261850DA22280EDE6E0D0E62
:10212400DD6E17C0D9FF18C0DAFF480EDF6E17C086
:10213400D9FF18C0DAFF000EDB8E120005500D0126
:10214400265D06500D012759D8B004D026CD05F0E0
:1021540027CD06F05BEC0EF020EE02F00750D926F6
:102164000850DA22280EDE6E0D0EDD6E07C0D9FF90
:1021740008C0DAFF480EDF6E07C0D9FF08C0DAFFD7
:10218400000EDB8E1200446E000E456E0D0E466E80
:102194003F50406E416AD890403641364450426EBA
:1021A400436AD89042364336D8904236433640503C
:1021B400422641504322D89042364336D890423684
:1021C4004336425045264350462245C0D9FF46C0B7
:1021D400DAFFDF9E3F50D8A407D04450020D990E79
:1021E400F324D96E000E06D04450020D070EF324DA
:1021F400D96E000EF420DA6E45C0DEFF46C0DDFF66
:1022040045C0D9FF46C0DAFFDF9C20EE04F04550FC
:10221400D9264650DA22DF8C120065A236D0010E90
:1022240021EC14F012000B040C10D8A404D0010EFD
:1022340010EC14F02FD04B0E0B180C10D8A404D0B3
:10224400010E21EC14F026D00C5004E1970E0B5C27
:10225400D8A020D0000E0C6E000E0B6E1BD00B0409
:102264000C10D8A404D0010E10EC14F013D0320ECC
:102274000B180C10D8A404D0010E21EC14F00AD0D1
:10228400B70E0B5C030E0C58E3D71F50200AD8B4CA
:10229400CAD7E5D70B4A0C2A12008B908B808B92FD
:1022A400000E4FEC14F0286E8B8228C041F0000E13
:1022B400276E070E276401D012002750050D020E69
:1022C400F326000EF422600EF324D96E000EF420DF
:1022D400DA6E2750050D030EF326000EF422600E6D
:1022E400F324E16E000EF420E26EDFCFE7FF275007
:1022F400050D020EF326000EF422600EF324D96EAF
:10230400000EF420DA6E4150010BDF6ED89041309C
:10231400416E272ACED70ED00FEC11F060EC14F0EA
:1023240012000FEC11F012000FEC11F01200BAECD5
:1023340013F01200E1C04FF0E2C050F05050000A18
:10234400D8B404D07F0AD8A412001AD04F50010A7E
:10235400D8B4EDD7030AD8B41200010AD8B41200D5
:10236400060AD8B41200770AD8B41200010AD8B405
:10237400D3D7070AD8B4D8D7010AD8A41200D1D722
:102384004F50FF0A12004C6E0F501010D8B406D0F4
:102394000FC0D9FF10C0DAFFDFBE1200000E2A6E94
:1023A400000E2B6E000E2C6E000E2D6E2A982A9AAB
:1023B4002A9C2A9E2A50F00B09092A6E900E2B6E35
:1023C4004CC02CF04AC02DF0010E3F6E2A0E406E18
:1023D400000E416E040E426E010E00EC0CF03FC084
:1023E4000FF040C010F012004C6E0F501010D8B413
:1023F40006D00FC0D9FF10C0DAFFDFBE1200000EF6
:102404002A6E000E2B6E000E2C6E000E2D6E2A9876
:102414002A9A2A9C2A9E2A50F00B08092A6E800EBA
:102424002B6E4CC02CF04AC02DF0010E3F6E2A0ECC
:10243400406E000E416E040E426E010E00EC0CF074
:102444003FC00FF040C010F012004C6E0F5010103F
:10245400D8B406D00FC0D9FF10C0DAFFDFBE120017
:10246400000E2A6E000E2B6E000E2C6E000E2D6ECA
:102474002A982A9A2A9C2A9E2A50F00B0B092A6E23
:10248400B00E2B6E4CC02CF04AC02DF0010E3F6EE6
:102494002A0E406E000E416E040E426E010E00ECD8
:1024A4000CF03FC00FF040C010F01200020E2418D0
:1024B400D8A403D074EC0BF01200000E246E195053
:1024C400D8A41FD020EE01F01750D9261850DA22D4
:1024D400080EDF6E20EE02F01750D9261850DA22CB
:1024E400200EDE6E0D0EDD6E17C0D9FF18C0DAFFA8
:1024F4000C0EDF6E17C0D9FF18C0DAFF000EDB8E9A
:102504001200000E196E1200436E1DD0020E406EB2
:10251400580E3F6E9B8C3F06D8A040063F28FBE137
:102524004028D8B41200F7D7700ED36E030E426E53
:10253400200E416E4106D8A042064128FBE1422804
:10254400D8B41200F7D74350000AD8B4DFD7010A31
:10255400D8B41200030AD8A41200E6D71F0E1F64D1
:10256400120065B212000D500E10D8B406D00DC082
:10257400D9FF0EC0DAFFDFBE16D00DC0E1F00EC0E9
:10258400E2F00001E36BE46B000E3F6EA10E406EBF
:10259400000E416E400E426E010E00EC0CF03FC086
:1025A4000DF040C00EF04FEC11F0FAEC0CF01200FC
:1025B400000E276E070E276401D0120027503C0F2F
:1025C4003F6E2750EBEC13F020EE4AF0040EEBCFF5
:1025D400DBFFE806FCE220EE4AF02750050D600E12
:1025E400F324E16E000EF420E26E040EDBCFE3FF71
:1025F400E806FCE2272ADED70F0126A11ED015C06B
:10260400D9FF16C0DAFF800EDE18D8A414D007C094
:10261400D9FF08C0DAFF840EDE18D8A40CD015C088
:10262400D9FF16C0DAFF0C0EDF6E15C0D9FF16C035
:10263400DAFF000EDB8E0F012691629A12009B8C4A
:1026440042EC14F058EC14F0000E86EC12F033EC6B
:102654000AF0000E00019E6F000E9D6FAA0E286EF8
:1026640069EC09F0B0EC12F08C90180E4FEC14F0F9
:10267400000E4FEC14F0000E4FEC14F0286E8C801A
:10268400EFD741C047F042C048F03FC045F040C0DA
:1026940046F00ED047C0D9FF48C0DAFF45C0E1FF7D
:1026A40046C0E2FFDFCFE7FF474A482A454A462AA9
:1026B4004306D8A044064328EDE14428D8B41200C8
:1026C400E9D7000E1B6E000E0001E26F740EE16F7D
:1026D400000E0001E36F000E0001E46F000E000124
:1026E400E66F000EE56F8DEC11F065920F013695E3
:1026F40001D0629462B4FDD7000E236E12004A6EBC
:1027040047A405D0000E3F6E4A50C5EC10F047A216
:1027140005D0010E3F6E4A50C5EC10F04A50010D31
:10272400260EF324486E0F0EF420496E48C0D9FFDC
:1027340049C0DAFF47C0DFFF12000F0136856298F7
:102744006582010E1B6E000E236E000E0001E26F07
:10275400750EE16F000E0001E36F000E0001E46FDF
:10276400000E0001E66F000EE56F8DEC11F0120013
:10277400000E0D6E000E0E6E1E0E476E010E81ECE5
:1027840013F0000E3F6EA10E406E000E416E400E1F
:10279400426E010E00EC0CF03FC00DF040C00EF094
:1027A400DAEC12F012003FC045F040C046F008D009
:1027B40045C0D9FF46C0DAFF41C0DFFF454A462A7B
:1027C4004306D8A044064328F3E14428D8B41200B1
:1027D400EFD73FC045F07A0E466E000E476E000EEE
:1027E400486E000E496E20EE45F000EE3FF0040EF8
:1027F400DBCFEBFFE806FCE2120000EE60F0810E96
:10280400EE6AE806FDE100EE01F0300EEE6AE8063D
:10281400FDE151905192000121EF13F03F6E04D07D
:102824008D8012008D8212003F50000AD8B412002D
:10283400010AD8B4F5D7030AD8A41200F3D73F6E1F
:1028440004D08D9012008D9212003F50000AD8B42B
:102854001200010AD8B4F5D7030AD8A41200F3D79A
:10286400010E00019127000E9223932394231B5001
:10287400D8A41200232A2350D8A4120023681200DB
:10288400000E8A6E200E936E030E8B6E000E946EF5
:10289400010E8C6E100E956E12003F6E3FC0C9FF84
:1028A400C7A0FED7C9CF40F040501200C78CC698CD
:0E28B400C650F00B0109C66EC68A1200120053
:020000040001F9
:08FFF800A8F73DFF63FA81F94F
:00000001FF
